{
  "_format": "hh-sol-artifact-1",
  "contractName": "BridgeEVM",
  "sourceName": "contracts/BridgeEVM.sol",
  "abi": [
    {
      "inputs": [
        {
          "internalType": "address",
          "name": "_bridgeToken",
          "type": "address"
        },
        {
          "internalType": "address",
          "name": "_owner",
          "type": "address"
        }
      ],
      "stateMutability": "nonpayable",
      "type": "constructor"
    },
    {
      "inputs": [],
      "name": "InsufficientBalance",
      "type": "error"
    },
    {
      "inputs": [],
      "name": "InvalidAmount",
      "type": "error"
    },
    {
      "inputs": [],
      "name": "InvalidRecipient",
      "type": "error"
    },
    {
      "inputs": [
        {
          "internalType": "address",
          "name": "owner",
          "type": "address"
        }
      ],
      "name": "OwnableInvalidOwner",
      "type": "error"
    },
    {
      "inputs": [
        {
          "internalType": "address",
          "name": "account",
          "type": "address"
        }
      ],
      "name": "OwnableUnauthorizedAccount",
      "type": "error"
    },
    {
      "inputs": [],
      "name": "ReentrancyGuardReentrantCall",
      "type": "error"
    },
    {
      "inputs": [],
      "name": "TransactionAlreadyProcessed",
      "type": "error"
    },
    {
      "inputs": [],
      "name": "TransferFailed",
      "type": "error"
    },
    {
      "anonymous": false,
      "inputs": [
        {
          "indexed": true,
          "internalType": "address",
          "name": "to",
          "type": "address"
        },
        {
          "indexed": false,
          "internalType": "uint256",
          "name": "amount",
          "type": "uint256"
        },
        {
          "indexed": false,
          "internalType": "uint256",
          "name": "timestamp",
          "type": "uint256"
        }
      ],
      "name": "EmergencyWithdraw",
      "type": "event"
    },
    {
      "anonymous": false,
      "inputs": [
        {
          "indexed": true,
          "internalType": "address",
          "name": "previousOwner",
          "type": "address"
        },
        {
          "indexed": true,
          "internalType": "address",
          "name": "newOwner",
          "type": "address"
        }
      ],
      "name": "OwnershipTransferred",
      "type": "event"
    },
    {
      "anonymous": false,
      "inputs": [
        {
          "indexed": true,
          "internalType": "address",
          "name": "recipient",
          "type": "address"
        },
        {
          "indexed": false,
          "internalType": "uint256",
          "name": "amount",
          "type": "uint256"
        },
        {
          "indexed": true,
          "internalType": "bytes32",
          "name": "solanaTxHash",
          "type": "bytes32"
        },
        {
          "indexed": false,
          "internalType": "uint256",
          "name": "timestamp",
          "type": "uint256"
        }
      ],
      "name": "Released",
      "type": "event"
    },
    {
      "anonymous": false,
      "inputs": [
        {
          "indexed": true,
          "internalType": "address",
          "name": "from",
          "type": "address"
        },
        {
          "indexed": false,
          "internalType": "uint256",
          "name": "amount",
          "type": "uint256"
        },
        {
          "indexed": false,
          "internalType": "uint256",
          "name": "timestamp",
          "type": "uint256"
        }
      ],
      "name": "TokenDeposited",
      "type": "event"
    },
    {
      "inputs": [],
      "name": "bridgeToken",
      "outputs": [
        {
          "internalType": "contract IERC20",
          "name": "",
          "type": "address"
        }
      ],
      "stateMutability": "view",
      "type": "function"
    },
    {
      "inputs": [
        {
          "internalType": "uint256",
          "name": "amount",
          "type": "uint256"
        }
      ],
      "name": "depositTokens",
      "outputs": [],
      "stateMutability": "nonpayable",
      "type": "function"
    },
    {
      "inputs": [
        {
          "internalType": "address",
          "name": "to",
          "type": "address"
        },
        {
          "internalType": "uint256",
          "name": "amount",
          "type": "uint256"
        }
      ],
      "name": "emergencyWithdraw",
      "outputs": [],
      "stateMutability": "nonpayable",
      "type": "function"
    },
    {
      "inputs": [],
      "name": "getBridgeBalance",
      "outputs": [
        {
          "internalType": "uint256",
          "name": "",
          "type": "uint256"
        }
      ],
      "stateMutability": "view",
      "type": "function"
    },
    {
      "inputs": [
        {
          "internalType": "bytes32",
          "name": "solanaTxHash",
          "type": "bytes32"
        }
      ],
      "name": "isTransactionProcessed",
      "outputs": [
        {
          "internalType": "bool",
          "name": "",
          "type": "bool"
        }
      ],
      "stateMutability": "view",
      "type": "function"
    },
    {
      "inputs": [],
      "name": "owner",
      "outputs": [
        {
          "internalType": "address",
          "name": "",
          "type": "address"
        }
      ],
      "stateMutability": "view",
      "type": "function"
    },
    {
      "inputs": [
        {
          "internalType": "bytes32",
          "name": "",
          "type": "bytes32"
        }
      ],
      "name": "processedTxs",
      "outputs": [
        {
          "internalType": "bool",
          "name": "",
          "type": "bool"
        }
      ],
      "stateMutability": "view",
      "type": "function"
    },
    {
      "inputs": [
        {
          "internalType": "address",
          "name": "to",
          "type": "address"
        },
        {
          "internalType": "uint256",
          "name": "amount",
          "type": "uint256"
        },
        {
          "internalType": "bytes32",
          "name": "solanaTxHash",
          "type": "bytes32"
        }
      ],
      "name": "release",
      "outputs": [],
      "stateMutability": "nonpayable",
      "type": "function"
    },
    {
      "inputs": [],
      "name": "renounceOwnership",
      "outputs": [],
      "stateMutability": "nonpayable",
      "type": "function"
    },
    {
      "inputs": [
        {
          "internalType": "address",
          "name": "newOwner",
          "type": "address"
        }
      ],
      "name": "transferOwnership",
      "outputs": [],
      "stateMutability": "nonpayable",
      "type": "function"
    }
  ],
  "bytecode": "0x608060405234801561001057600080fd5b50604051610aa7380380610aa783398101604081905261002f91610155565b806001600160a01b03811661005f57604051631e4fbdf760e01b8152600060048201526024015b60405180910390fd5b610068816100e9565b50600180556001600160a01b0382166100c35760405162461bcd60e51b815260206004820152601560248201527f496e76616c696420746f6b656e206164647265737300000000000000000000006044820152606401610056565b50600280546001600160a01b0319166001600160a01b0392909216919091179055610188565b600080546001600160a01b038381166001600160a01b0319831681178455604051919092169283917f8be0079c531659141344cd1fd0a4f28419497f9722a3daafe3b4186f6b6457e09190a35050565b80516001600160a01b038116811461015057600080fd5b919050565b6000806040838503121561016857600080fd5b61017183610139565b915061017f60208401610139565b90509250929050565b610910806101976000396000f3fe608060405234801561001057600080fd5b506004361061009e5760003560e01c8063dd49756e11610066578063dd49756e14610130578063efc646ca14610143578063f0bc86de14610166578063f2fde38b1461017c578063f4734b0c1461018f57600080fd5b80632d3ad0cb146100a3578063715018a6146100b85780638da5cb5b146100c057806395ccea67146100ea5780639e16f217146100fd575b600080fd5b6100b66100b1366004610807565b6101a2565b005b6100b66103bf565b6000546001600160a01b03165b6040516001600160a01b0390911681526020015b60405180910390f35b6100b66100f836600461083a565b6103d3565b61012061010b366004610864565b60036020526000908152604090205460ff1681565b60405190151581526020016100e1565b6100b661013e366004610864565b610594565b610120610151366004610864565b60009081526003602052604090205460ff1690565b61016e61068f565b6040519081526020016100e1565b6100b661018a36600461087d565b610701565b6002546100cd906001600160a01b031681565b6101aa610744565b6101b2610771565b6001600160a01b0383166101d957604051634e46966960e11b815260040160405180910390fd5b816000036101fa5760405163162908e360e11b815260040160405180910390fd5b60008181526003602052604090205460ff161561022a5760405163eb4156ad60e01b815260040160405180910390fd5b6002546040516370a0823160e01b81523060048201526000916001600160a01b0316906370a0823190602401602060405180830381865afa158015610273573d6000803e3d6000fd5b505050506040513d601f19601f82011682018060405250810190610297919061089f565b9050828110156102ba57604051631e9acf1760e31b815260040160405180910390fd5b600082815260036020526040808220805460ff19166001179055600254905163a9059cbb60e01b81526001600160a01b038781166004830152602482018790529091169063a9059cbb906044016020604051808303816000875af1158015610326573d6000803e3d6000fd5b505050506040513d601f19601f8201168201806040525081019061034a91906108b8565b90508061036a576040516312171d8360e31b815260040160405180910390fd5b6040805185815242602082015284916001600160a01b038816917f74d8af52c305adb9ca328b474d27cc0e156458d08a370a7264c8f4977a5feab8910160405180910390a350506103ba60018055565b505050565b6103c7610744565b6103d1600061079b565b565b6103db610744565b6001600160a01b03821661040257604051634e46966960e11b815260040160405180910390fd5b806000036104235760405163162908e360e11b815260040160405180910390fd5b6002546040516370a0823160e01b81523060048201526000916001600160a01b0316906370a0823190602401602060405180830381865afa15801561046c573d6000803e3d6000fd5b505050506040513d601f19601f82011682018060405250810190610490919061089f565b9050818110156104b357604051631e9acf1760e31b815260040160405180910390fd5b60025460405163a9059cbb60e01b81526001600160a01b03858116600483015260248201859052600092169063a9059cbb906044016020604051808303816000875af1158015610507573d6000803e3d6000fd5b505050506040513d601f19601f8201168201806040525081019061052b91906108b8565b90508061054b576040516312171d8360e31b815260040160405180910390fd5b604080518481524260208201526001600160a01b038616917fbb757047c2b5f3974fe26b7c10f732e7bce710b0952a71082702781e62ae0595910160405180910390a250505050565b806000036105b55760405163162908e360e11b815260040160405180910390fd5b6002546040516323b872dd60e01b8152336004820152306024820152604481018390526000916001600160a01b0316906323b872dd906064016020604051808303816000875af115801561060d573d6000803e3d6000fd5b505050506040513d601f19601f8201168201806040525081019061063191906108b8565b905080610651576040516312171d8360e31b815260040160405180910390fd5b6040805183815242602082015233917f1c83e520720711a18cf486e7e5a403bad3f020deb71d3326a4bbf507260e365f910160405180910390a25050565b6002546040516370a0823160e01b81523060048201526000916001600160a01b0316906370a0823190602401602060405180830381865afa1580156106d8573d6000803e3d6000fd5b505050506040513d601f19601f820116820180604052508101906106fc919061089f565b905090565b610709610744565b6001600160a01b03811661073857604051631e4fbdf760e01b8152600060048201526024015b60405180910390fd5b6107418161079b565b50565b6000546001600160a01b031633146103d15760405163118cdaa760e01b815233600482015260240161072f565b60026001540361079457604051633ee5aeb560e01b815260040160405180910390fd5b6002600155565b600080546001600160a01b038381166001600160a01b0319831681178455604051919092169283917f8be0079c531659141344cd1fd0a4f28419497f9722a3daafe3b4186f6b6457e09190a35050565b80356001600160a01b038116811461080257600080fd5b919050565b60008060006060848603121561081c57600080fd5b610825846107eb565b95602085013595506040909401359392505050565b6000806040838503121561084d57600080fd5b610856836107eb565b946020939093013593505050565b60006020828403121561087657600080fd5b5035919050565b60006020828403121561088f57600080fd5b610898826107eb565b9392505050565b6000602082840312156108b157600080fd5b5051919050565b6000602082840312156108ca57600080fd5b8151801515811461089857600080fdfea26469706673582212201bd4d07341e683e3339252c6cb599dc9c886767d7ec5e0887f3fcc3e77fee46f64736f6c63430008140033",
  "linkReferences": {},
  "deployedLinkReferences": {}
}