{
  "_format": "hh-sol-artifact-1",
  "contractName": "BridgeEVM",
  "sourceName": "contracts/BridgeEVM.sol",
  "abi": [
    {
      "inputs": [
        {
          "internalType": "address",
          "name": "_bridgeToken",
          "type": "address"
        },
        {
          "internalType": "address",
          "name": "_owner",
          "type": "address"
        }
      ],
      "stateMutability": "nonpayable",
      "type": "constructor"
    },
    {
      "inputs": [],
      "name": "InsufficientBalance",
      "type": "error"
    },
    {
      "inputs": [],
      "name": "InvalidAmount",
      "type": "error"
    },
    {
      "inputs": [],
      "name": "InvalidRecipient",
      "type": "error"
    },
    {
      "inputs": [],
      "name": "InvalidSolanaAddress",
      "type": "error"
    },
    {
      "inputs": [
        {
          "internalType": "address",
          "name": "owner",
          "type": "address"
        }
      ],
      "name": "OwnableInvalidOwner",
      "type": "error"
    },
    {
      "inputs": [
        {
          "internalType": "address",
          "name": "account",
          "type": "address"
        }
      ],
      "name": "OwnableUnauthorizedAccount",
      "type": "error"
    },
    {
      "inputs": [],
      "name": "ReentrancyGuardReentrantCall",
      "type": "error"
    },
    {
      "inputs": [],
      "name": "TransactionAlreadyProcessed",
      "type": "error"
    },
    {
      "inputs": [],
      "name": "TransferFailed",
      "type": "error"
    },
    {
      "anonymous": false,
      "inputs": [
        {
          "indexed": true,
          "internalType": "address",
          "name": "to",
          "type": "address"
        },
        {
          "indexed": false,
          "internalType": "uint256",
          "name": "amount",
          "type": "uint256"
        },
        {
          "indexed": false,
          "internalType": "uint256",
          "name": "timestamp",
          "type": "uint256"
        }
      ],
      "name": "EmergencyWithdraw",
      "type": "event"
    },
    {
      "anonymous": false,
      "inputs": [
        {
          "indexed": true,
          "internalType": "address",
          "name": "from",
          "type": "address"
        },
        {
          "indexed": false,
          "internalType": "uint256",
          "name": "amount",
          "type": "uint256"
        },
        {
          "indexed": true,
          "internalType": "string",
          "name": "solanaAddress",
          "type": "string"
        },
        {
          "indexed": false,
          "internalType": "uint256",
          "name": "timestamp",
          "type": "uint256"
        }
      ],
      "name": "Locked",
      "type": "event"
    },
    {
      "anonymous": false,
      "inputs": [
        {
          "indexed": true,
          "internalType": "address",
          "name": "previousOwner",
          "type": "address"
        },
        {
          "indexed": true,
          "internalType": "address",
          "name": "newOwner",
          "type": "address"
        }
      ],
      "name": "OwnershipTransferred",
      "type": "event"
    },
    {
      "anonymous": false,
      "inputs": [
        {
          "indexed": true,
          "internalType": "address",
          "name": "recipient",
          "type": "address"
        },
        {
          "indexed": false,
          "internalType": "uint256",
          "name": "amount",
          "type": "uint256"
        },
        {
          "indexed": true,
          "internalType": "bytes32",
          "name": "solanaTxHash",
          "type": "bytes32"
        },
        {
          "indexed": false,
          "internalType": "uint256",
          "name": "timestamp",
          "type": "uint256"
        }
      ],
      "name": "Released",
      "type": "event"
    },
    {
      "anonymous": false,
      "inputs": [
        {
          "indexed": true,
          "internalType": "address",
          "name": "from",
          "type": "address"
        },
        {
          "indexed": false,
          "internalType": "uint256",
          "name": "amount",
          "type": "uint256"
        },
        {
          "indexed": false,
          "internalType": "uint256",
          "name": "timestamp",
          "type": "uint256"
        }
      ],
      "name": "TokenDeposited",
      "type": "event"
    },
    {
      "inputs": [],
      "name": "bridgeToken",
      "outputs": [
        {
          "internalType": "contract IERC20",
          "name": "",
          "type": "address"
        }
      ],
      "stateMutability": "view",
      "type": "function"
    },
    {
      "inputs": [
        {
          "internalType": "uint256",
          "name": "amount",
          "type": "uint256"
        }
      ],
      "name": "depositTokens",
      "outputs": [],
      "stateMutability": "nonpayable",
      "type": "function"
    },
    {
      "inputs": [
        {
          "internalType": "address",
          "name": "to",
          "type": "address"
        },
        {
          "internalType": "uint256",
          "name": "amount",
          "type": "uint256"
        }
      ],
      "name": "emergencyWithdraw",
      "outputs": [],
      "stateMutability": "nonpayable",
      "type": "function"
    },
    {
      "inputs": [],
      "name": "getBridgeBalance",
      "outputs": [
        {
          "internalType": "uint256",
          "name": "",
          "type": "uint256"
        }
      ],
      "stateMutability": "view",
      "type": "function"
    },
    {
      "inputs": [
        {
          "internalType": "bytes32",
          "name": "sepoliaTxHash",
          "type": "bytes32"
        }
      ],
      "name": "isSepoliaToSolanaTransactionProcessed",
      "outputs": [
        {
          "internalType": "bool",
          "name": "",
          "type": "bool"
        }
      ],
      "stateMutability": "view",
      "type": "function"
    },
    {
      "inputs": [
        {
          "internalType": "bytes32",
          "name": "solanaTxHash",
          "type": "bytes32"
        }
      ],
      "name": "isSolanaToSepoliaTransactionProcessed",
      "outputs": [
        {
          "internalType": "bool",
          "name": "",
          "type": "bool"
        }
      ],
      "stateMutability": "view",
      "type": "function"
    },
    {
      "inputs": [
        {
          "internalType": "uint256",
          "name": "amount",
          "type": "uint256"
        },
        {
          "internalType": "string",
          "name": "solanaAddress",
          "type": "string"
        }
      ],
      "name": "lock",
      "outputs": [],
      "stateMutability": "nonpayable",
      "type": "function"
    },
    {
      "inputs": [
        {
          "internalType": "bytes32",
          "name": "sepoliaTxHash",
          "type": "bytes32"
        }
      ],
      "name": "markSepoliaTransactionProcessed",
      "outputs": [],
      "stateMutability": "nonpayable",
      "type": "function"
    },
    {
      "inputs": [],
      "name": "owner",
      "outputs": [
        {
          "internalType": "address",
          "name": "",
          "type": "address"
        }
      ],
      "stateMutability": "view",
      "type": "function"
    },
    {
      "inputs": [
        {
          "internalType": "bytes32",
          "name": "",
          "type": "bytes32"
        }
      ],
      "name": "processedSepoliaToSolanaTxs",
      "outputs": [
        {
          "internalType": "bool",
          "name": "",
          "type": "bool"
        }
      ],
      "stateMutability": "view",
      "type": "function"
    },
    {
      "inputs": [
        {
          "internalType": "bytes32",
          "name": "",
          "type": "bytes32"
        }
      ],
      "name": "processedSolanaToSepoliaTxs",
      "outputs": [
        {
          "internalType": "bool",
          "name": "",
          "type": "bool"
        }
      ],
      "stateMutability": "view",
      "type": "function"
    },
    {
      "inputs": [
        {
          "internalType": "address",
          "name": "to",
          "type": "address"
        },
        {
          "internalType": "uint256",
          "name": "amount",
          "type": "uint256"
        },
        {
          "internalType": "bytes32",
          "name": "solanaTxHash",
          "type": "bytes32"
        }
      ],
      "name": "release",
      "outputs": [],
      "stateMutability": "nonpayable",
      "type": "function"
    },
    {
      "inputs": [],
      "name": "renounceOwnership",
      "outputs": [],
      "stateMutability": "nonpayable",
      "type": "function"
    },
    {
      "inputs": [
        {
          "internalType": "address",
          "name": "newOwner",
          "type": "address"
        }
      ],
      "name": "transferOwnership",
      "outputs": [],
      "stateMutability": "nonpayable",
      "type": "function"
    }
  ],
  "bytecode": "0x608060405234801561001057600080fd5b50604051610d5a380380610d5a83398101604081905261002f91610155565b806001600160a01b03811661005f57604051631e4fbdf760e01b8152600060048201526024015b60405180910390fd5b610068816100e9565b50600180556001600160a01b0382166100c35760405162461bcd60e51b815260206004820152601560248201527f496e76616c696420746f6b656e206164647265737300000000000000000000006044820152606401610056565b50600280546001600160a01b0319166001600160a01b0392909216919091179055610188565b600080546001600160a01b038381166001600160a01b0319831681178455604051919092169283917f8be0079c531659141344cd1fd0a4f28419497f9722a3daafe3b4186f6b6457e09190a35050565b80516001600160a01b038116811461015057600080fd5b919050565b6000806040838503121561016857600080fd5b61017183610139565b915061017f60208401610139565b90509250929050565b610bc3806101976000396000f3fe608060405234801561001057600080fd5b50600436106100e95760003560e01c8063c889096b1161008c578063f0bc86de11610066578063f0bc86de1461020a578063f2fde38b14610220578063f4734b0c14610233578063f643509c1461024657600080fd5b8063c889096b146101b1578063dd49756e146101d4578063f0b40ced146101e757600080fd5b80636230031d116100c85780636230031d1461015e578063715018a6146101715780638da5cb5b1461017957806395ccea671461019e57600080fd5b806258d14a146100ee5780632d3ad0cb14610126578063329b99541461013b575b600080fd5b6101116100fc366004610a12565b60046020526000908152604090205460ff1681565b60405190151581526020015b60405180910390f35b610139610134366004610a47565b610259565b005b610111610149366004610a12565b60009081526003602052604090205460ff1690565b61013961016c366004610a12565b610476565b610139610499565b6000546001600160a01b03165b6040516001600160a01b03909116815260200161011d565b6101396101ac366004610a7a565b6104ad565b6101116101bf366004610a12565b60036020526000908152604090205460ff1681565b6101396101e2366004610a12565b61066e565b6101116101f5366004610a12565b60009081526004602052604090205460ff1690565b610212610769565b60405190815260200161011d565b61013961022e366004610aa4565b6107db565b600254610186906001600160a01b031681565b610139610254366004610ac6565b61081e565b61026161096b565b610269610998565b6001600160a01b03831661029057604051634e46966960e11b815260040160405180910390fd5b816000036102b15760405163162908e360e11b815260040160405180910390fd5b60008181526003602052604090205460ff16156102e15760405163eb4156ad60e01b815260040160405180910390fd5b6002546040516370a0823160e01b81523060048201526000916001600160a01b0316906370a0823190602401602060405180830381865afa15801561032a573d6000803e3d6000fd5b505050506040513d601f19601f8201168201806040525081019061034e9190610b42565b90508281101561037157604051631e9acf1760e31b815260040160405180910390fd5b600082815260036020526040808220805460ff19166001179055600254905163a9059cbb60e01b81526001600160a01b038781166004830152602482018790529091169063a9059cbb906044016020604051808303816000875af11580156103dd573d6000803e3d6000fd5b505050506040513d601f19601f820116820180604052508101906104019190610b5b565b905080610421576040516312171d8360e31b815260040160405180910390fd5b6040805185815242602082015284916001600160a01b038816917f74d8af52c305adb9ca328b474d27cc0e156458d08a370a7264c8f4977a5feab8910160405180910390a3505061047160018055565b505050565b61047e61096b565b6000908152600460205260409020805460ff19166001179055565b6104a161096b565b6104ab60006109c2565b565b6104b561096b565b6001600160a01b0382166104dc57604051634e46966960e11b815260040160405180910390fd5b806000036104fd5760405163162908e360e11b815260040160405180910390fd5b6002546040516370a0823160e01b81523060048201526000916001600160a01b0316906370a0823190602401602060405180830381865afa158015610546573d6000803e3d6000fd5b505050506040513d601f19601f8201168201806040525081019061056a9190610b42565b90508181101561058d57604051631e9acf1760e31b815260040160405180910390fd5b60025460405163a9059cbb60e01b81526001600160a01b03858116600483015260248201859052600092169063a9059cbb906044016020604051808303816000875af11580156105e1573d6000803e3d6000fd5b505050506040513d601f19601f820116820180604052508101906106059190610b5b565b905080610625576040516312171d8360e31b815260040160405180910390fd5b604080518481524260208201526001600160a01b038616917fbb757047c2b5f3974fe26b7c10f732e7bce710b0952a71082702781e62ae0595910160405180910390a250505050565b8060000361068f5760405163162908e360e11b815260040160405180910390fd5b6002546040516323b872dd60e01b8152336004820152306024820152604481018390526000916001600160a01b0316906323b872dd906064016020604051808303816000875af11580156106e7573d6000803e3d6000fd5b505050506040513d601f19601f8201168201806040525081019061070b9190610b5b565b90508061072b576040516312171d8360e31b815260040160405180910390fd5b6040805183815242602082015233917f1c83e520720711a18cf486e7e5a403bad3f020deb71d3326a4bbf507260e365f910160405180910390a25050565b6002546040516370a0823160e01b81523060048201526000916001600160a01b0316906370a0823190602401602060405180830381865afa1580156107b2573d6000803e3d6000fd5b505050506040513d601f19601f820116820180604052508101906107d69190610b42565b905090565b6107e361096b565b6001600160a01b03811661081257604051631e4fbdf760e01b8152600060048201526024015b60405180910390fd5b61081b816109c2565b50565b610826610998565b826000036108475760405163162908e360e11b815260040160405180910390fd5b60208110806108565750602c81115b1561087457604051636f86172f60e11b815260040160405180910390fd5b6002546040516323b872dd60e01b8152336004820152306024820152604481018590526000916001600160a01b0316906323b872dd906064016020604051808303816000875af11580156108cc573d6000803e3d6000fd5b505050506040513d601f19601f820116820180604052508101906108f09190610b5b565b905080610910576040516312171d8360e31b815260040160405180910390fd5b8282604051610920929190610b7d565b604080519182900382208683524260208401529133917fc3a90879daa4563778b9d284a6e6548021dbe1516dfb66d972958cf1c08a2cc1910160405180910390a35061047160018055565b6000546001600160a01b031633146104ab5760405163118cdaa760e01b8152336004820152602401610809565b6002600154036109bb57604051633ee5aeb560e01b815260040160405180910390fd5b6002600155565b600080546001600160a01b038381166001600160a01b0319831681178455604051919092169283917f8be0079c531659141344cd1fd0a4f28419497f9722a3daafe3b4186f6b6457e09190a35050565b600060208284031215610a2457600080fd5b5035919050565b80356001600160a01b0381168114610a4257600080fd5b919050565b600080600060608486031215610a5c57600080fd5b610a6584610a2b565b95602085013595506040909401359392505050565b60008060408385031215610a8d57600080fd5b610a9683610a2b565b946020939093013593505050565b600060208284031215610ab657600080fd5b610abf82610a2b565b9392505050565b600080600060408486031215610adb57600080fd5b83359250602084013567ffffffffffffffff80821115610afa57600080fd5b818601915086601f830112610b0e57600080fd5b813581811115610b1d57600080fd5b876020828501011115610b2f57600080fd5b6020830194508093505050509250925092565b600060208284031215610b5457600080fd5b5051919050565b600060208284031215610b6d57600080fd5b81518015158114610abf57600080fd5b818382376000910190815291905056fea26469706673582212200ce13ff7233160f2406e855893aad42d017cab13e760004730c5481a40f647cc64736f6c63430008140033",
  "linkReferences": {},
  "deployedLinkReferences": {}
}